:030000000204CB2C
:0C04CB00787FE4F6D8FD7581530205121D
:1006E0000B3F3F065B4F666D7D077F6F4008230021
:1006F00001020304050607084B000000000000008B
:050700000002310000C1
:100665007596FFE4F5957594FFF593F53CF53DF525
:1006750034F53875370CF521F522F54AF553F5397A
:10068500F53EF53B75360A752D09752F077530E171
:0E069500F52CF53A753501C201C200F52E2292
:1003960075F00A8485F009850851850952743F2550
:1003A6004BF8E6F5808523A07F0A7E0012043074A0
:1003B6003F254CF8E6F5808524A07F0A7E001204CE
:1003C60030743F254DF8E6F5808525A07F0A7E002E
:1003D600120430743F254EF8E6F5808526A07F0A84
:1003E6007E00120430743F254FF8E6F5808527A07D
:1003F6007F0A7E00120430743F2550F8E6F58085AA
:1004060028A07F0A7E00120430743F2551F8E6F5D5
:10041600808529A07F0A7E00120430743F2552F899
:0A042600E6F580852AA07F0A7E001B
:0D043000EFD3940040077E7BDEFE1F80F3BB
:01043D00229C
:10070600758902758C09758A66D28CD2A9D2A8D24F
:02071600AF2210
:03000B0002055794
:10055700C0E0C0D00532E53270020531642845316C
:100567007060F531F532053DE53D7002053C646488
:10057700453C7009F53CF53D0534753501E534B466
:100587003C057534000538E538B43C057538000579
:1005970037E537B418037537003001260522E52201
:1005A70070020521646445217006F521F522054A8C
:1005B700E54AB43C05754A000553E553B43C037559
:0705C7005300D0D0D0E03258
:10043E00E52C640160030204CA20971E7F0AFE1297
:10044E0004302097153097FD12042C3097FD053A95
:10045E00E53AB40305E4F53AF534E53A14602414AC
:10046E00603E2402705620B35312042C20B34D303C
:10047E00B3FD12042C30B3FD0534E534643C703CFE
:10048E00F5342220B33612042C20B33030B3FD12D3
:10049E00042C30B3FD0538E538643C701FF5382266
:1004AE0020B31912042C20B31330B3FD12042C30D8
:0D04BE00B3FD0537E537B41803E4F5372228
:1002C600E52C6402600302035220971C7F0AFE128B
:1002D60004302097133097FD12042C3097FD053A11
:1002E600E53AB40303E4F53AE53A146025146040B0
:1002F6002402705820B35512042C20B34F30B3FD9E
:1003060012042C30B3FD0539E539643C703EF539ED
:10031600803A20B33712042C20B33130B3FD1204D7
:100326002C30B3FD053EE53E643C7020F53E801C56
:1003360020B31912042C20B31330B3FD12042C3051
:10034600B3FD053BE53BB41803E4F53BE539B534AD
:1003560022E53EB5381DE53BB53718E4F533C2B4A2
:100366007F01FE120430D2B47F017E0012043005F4
:10037600338005D2B4E4F533E533B40112C2B47F59
:10038600017E00120430D2B47F017E0012043022B6
:10000E00E52D14B40C00507690002475F003A4C5B1
:10001E008325F0C583730200480200520200480295
:10002E00004D02004802004D020048020048020046
:10003E004D02004802004D020048752B1F803F758F
:10004E002B1E803AE5305403700EAE2FAF30FC7D80
:10005E00641205CEED4C701EAE2FAF307C007D6469
:10006E001205CEED4C7014AE2FAF307C017D901288
:10007E0005CEED4C7005752B1D8003752B1CE52CE4
:10008E006403600302013620971C7F0AFE120430BF
:10009E002097133097FD12042C3097FD053AE53A60
:1000AE00B40303E4F53AE53A1460351460522402C1
:1000BE00707620B37312042C20B36D30B3FD12048E
:1000CE002C30B3FD0536E52B2401FFE433FEC3E5EA
:1000DE00369FEE6480F8748098404D7536018048E6
:1000EE0020B34512042C20B33F30B3FD12042C3044
:1000FE00B3FD052DE52DC3940D402D752D018028E2
:10010E0020B32512042C20B31F30B3FD12042C3063
:10011E00B3FD0530E5307002052FB4B80BE52FB4F2
:10012E000B06752F077530E1E5376417703CE5381F
:10013E00643B7036E534643B7030E5356401702AFB
:10014E00F5350536E52B2401FFE433FEE536B5071C
:10015E0019E4B50615753601052DE52DB40D0B7593
:0B016E002D010530E5307002052F2246
:10062300E52C6404703B2097147F0AFE12043020EB
:10063300970B3097FD12042C3097FDB20120B321A4
:1006430012042C20B31B30B3FD12042C30B3FDB2C3
:100653000030000DC200C201E4F521F522F54AF590
:02066300532220
:08017900E52C60046401704AEA
:10018100754D0A75500AE4F521F522F54AF553E556
:100191003775F00A84F508E53775F00A8485F009AA
:1001A10085084B85094CE53875F00A84F508E53872
:1001B10075F00A8485F00985084E85094FE5347587
:0A01C100F00A84F508E534120396F5
:0601CB00E52C6402704106
:1001D100754D0A75500AE53B75F00A84F508E53B53
:1001E10075F00A8485F00985084B85094CE53E7553
:1001F100F00A84F508E53E75F00A8485F009850862
:100201004E85094FE53975F00A84F508E539120381
:010211009656
:06021200E52C64037056A8
:10021800754D0A75500AAE2FAF30FC7D641205CEBD
:100228007E007F0ACFCDCFCECCCE1205CE8F08AEC2
:100238002FAF307C007D0A1205CE8D0985084B85CD
:10024800094CE52D75F00A84F508E52D75F00A844A
:1002580085F00985084E85094FE53675F00A84F55D
:0602680008E536120396C2
:06026E00E52C6404705150
:10027400E55375F06484E5F075F00A84F508E553F8
:1002840075F00A8485F00985084B85094CE54A75A3
:10029400F00A84F508E54A75F00A8485F0098508B2
:1002A4004E85094FAE21AF227C007D0A1205CE8F08
:1002B40008AE21AF227C007D0A1205CE8D091203FF
:0102C4009D9C
:0102C5002216
:1006A30012066512070620B2237F057BF8DBFEDF07
:1006B300FA20B218052CE52CB40503E4F52C30B26E
:1006C300FD7F057BF8DBFEDFFA30B2FD12043E123C
:0D06D30002C612000E12062312017980C922
:1004D7000206A3E493A3F8E493A34003F68001F292
:1004E70008DFF48029E493A3F85407240CC8C33326
:1004F700C4540F4420C8834004F456800146F6DFF5
:10050700E4800B01020408102040809006E0E47E9E
:10051700019360BCA3FF543F30E509541FFEE493E9
:10052700A360010ECF54C025E060A840B8E493A3B0
:10053700FAE493A3F8E493A3C8C582C8CAC583CADB
:10054700F0A3C8C582C8CAC583CADFE9DEE780BE93
:0107050000F3
:1005CE00BC000BBE0029EF8DF084FFADF022E4CC11
:1005DE00F875F008EF2FFFEE33FEEC33FCEE9DECDA
:1005EE00984005FCEE9DFE0FD5F0E9E4CEFD22ED20
:1005FE00F8F5F0EE8420D21CFEADF075F008EF2F6A
:10060E00FFED33FD4007985006D5F0F222C398FD5A
:05061E000FD5F0EA22F7
:00000001FF
